:100000000C9456000C9468000C9468000C946800E2
:100010000C9468000C9468000C9468000C946800C0
:100020000C9468000C9468000C9468000C946800B0
:100030000C94BA000C9468000C9468000C9468004E
:100040000C9468000C9468000C9468000C94680090
:100050000C9468000C9468000C9468000C94680080
:100060000C9468000C9468000C9468000C94680070
:100070000C9468000C9468000C9468000C94680060
:100080000C9468000C9468000C9468000C94680050
:100090000C9468000C9468000C9468000C94680040
:1000A0000C9468000C9468000C94680011241FBE26
:1000B000CFEFCDBFD3E2DEBF20E2A0E0B0E201C0CF
:1000C0001D92A230B207E1F70E94CF000C94AC035E
:1000D0000C940000E0E0F2E0808181608083808108
:1000E0008460808380E090E005C020910602822F2A
:1000F000817090E00197C9F7E0E0F2E064A175A19A
:10010000868181708683108280E090E00E948D025B
:1001100020E030EF4FE755E40E941B0223E333E376
:1001200043E550E40E943F0320E030E040E251E428
:100130000E943F030895E0E0F8E0108286818C7F02
:10014000868310A211A20895E0E0F8E010A211A2A7
:1001500086818160868384E080830895E0E0F3E017
:100160008081816080830895E0E0F3E080818E7F6C
:10017000808308951F920F920FB60F9211248F93D0
:10018000EF93FF93E0E0F8E0848581608487FF913E
:10019000EF918F910F900FBE0F901F9018950E94B6
:1001A0006E010E94D4010E9480010E94A0010E9461
:1001B000950181E080930106809305067894E0EA3A
:1001C000F0E0828181608283C12CD12CE12CF12C62
:1001D000C0E0D0E000E010E00E94EB01813009F1C6
:1001E00018F0823031F176C060E070E0CB010E94FF
:1001F000A7018C0160E070E080EC91E40E94A7010F
:10020000EC0160E070E0CB010E94A7017C0160E09E
:1002100070E0CB010E94A7016C0180EF0E940102F7
:10022000DBCFC0931803D093190380EF0E94010223
:10023000D3CF0E94EB01882E912C0E94EB01A82EB7
:10024000B12CBA2CAA24A828B92810920020109208
:1002500001200E94A4000E94EB018535A1F028F442
:100260008823D9F08832A1F01BC0843639F0883752
:10027000B9F4009318031093190315C0C093180321
:10028000D093190310C0E0921803F09219030BC029
:10029000C0921803D092190306C00E94B40003C094
:1002A0008FEF0E94010220910020309101202A1539
:1002B0003B05C8F30E94AE00C0931803D093190306
:1002C0000E949B0010920020109201208FE00E945B
:1002D000010282CF8FEF0E9401027ECFE0E5F0E0C5
:1002E0008081826080838091510081FFFCCF88ED06
:1002F00084BFE0E4F0E081E0808311821182089500
:1003000088E080930206E0E0F2E086E08483828168
:10031000828382818061828388E181A380A1816060
:1003200080A381A1876081A30895E0E0F8E01182B5
:10033000108281E0868380EA9FE086A397A30895D8
:10034000E0E0F3E01282118285E080830895CF928D
:10035000DF92EF92FF92CF93DF936B017C011092BB
:10036000180310921903C0E0D0E060E070E0CB0108
:1003700009C00E946A00BC01990F880B990B0E946A
:100380008F022196A70196010E941602882324F469
:10039000CF3F8FEFD80769F7CE01DF91CF91FF9064
:1003A000EF90DF90CF90089584E08093620688E01C
:1003B0008093610680936506E0ECF9E08781806DAB
:1003C0008783868183688683848183608483838135
:1003D00088618383089520E030E004C02091C10942
:1003E000207830E021153105C9F38091C00906C09D
:1003F000E0ECF9E02181207830E09081232BC1F7F7
:10040000089520E030E004C02091C109207230E05E
:10041000232BD1F38093C00980E090E004C0809149
:10042000C109807290E0892BD1F308950E94CA021D
:1004300008F481E008950E942F020C9405030E94A5
:10044000FE0258F00E94F70240F029F45F3F29F0C5
:100450000C94EE0251110C9439030C94F4020E9496
:10046000160368F39923B1F3552391F3951B550BAC
:10047000BB27AA2762177307840738F09F5F5F4F77
:10048000220F331F441FAA1FA9F335D00E2E3AF0B6
:10049000E0E832D091505040E695001CCAF72BD0CE
:1004A000FE2F29D0660F771F881FBB1F261737071F
:1004B0004807AB07B0E809F0BB0B802DBF01FF2751
:1004C00093585F4F3AF09E3F510578F00C94EE023E
:1004D0000C9439035F3FE4F3983ED4F38695779507
:1004E0006795B795F7959F5FC9F7880F911D96950A
:1004F000879597F90895E1E0660F771F881FBB1F66
:10050000621773078407BA0720F0621B730B840B12
:10051000BA0BEE1F88F7E0950895E89409C097FBA1
:100520003EF490958095709561957F4F8F4F9F4FCA
:100530009923A9F0F92F96E9BB279395F69587950E
:1005400077956795B795F111F8CFFAF4BB0F11F4D1
:1005500060FF1BC06F5F7F4F8F4F9F4F16C0882378
:1005600011F096E911C0772321F09EE8872F762FAE
:1005700005C0662371F096E8862F70E060E02AF0EF
:100580009A95660F771F881FDAF7880F96958795DB
:1005900097F90895990F0008550FAA0BE0E8FEEFB0
:1005A00016161706E807F907C0F012161306E40737
:1005B000F50798F0621B730B840B950B39F40A2630
:1005C00061F0232B242B252B21F408950A2609F40E
:1005D000A140A6958FEF811D811D089597F99F6712
:1005E00080E870E060E008959FEF80EC08950024BB
:1005F0000A941616170618060906089500240A9488
:1006000012161306140605060895092E0394000C0D
:1006100011F4882352F0BB0F40F4BF2B11F460FF9C
:1006200004C06F5F7F4F8F4F9F4F089557FD9058C5
:10063000440F551F59F05F3F71F04795880F97FBA6
:10064000991F61F09F3F79F0879508951216130660
:100650001406551FF2CF4695F1DF08C0161617068F
:100660001806991FF1CF86957105610508940895C4
:10067000E894BB2766277727CB0197F908950E9456
:1006800052030C9405030E94F70238F00E94FE0208
:1006900020F0952311F00C94EE020C94F402112436
:1006A0000C9439030E94160370F3959FC1F3950FC4
:1006B00050E0551F629FF001729FBB27F00DB11DE6
:1006C000639FAA27F00DB11DAA1F649F6627B00D76
:1006D000A11D661F829F2227B00DA11D621F739F5F
:1006E000B00DA11D621F839FA00D611D221F749F6D
:1006F0003327A00D611D231F849F600D211D822FB4
:10070000762F6A2F11249F5750409AF0F1F08823DA
:100710004AF0EE0FFF1FBB1F661F771F881F915007
:100720005040A9F79E3F510580F00C94EE020C94C6
:1007300039035F3FE4F3983ED4F386957795679548
:10074000B795F795E7959F5FC1F7FE2B880F911D31
:0C0750009695879597F90895F894FFCFCF
:00000001FF
